:020000040800F2
:1000000000200020D5010008DD010008E101000802
:1000100000000000000000000000000000000000E0
:10002000000000000000000000000000E5010008E2
:100030000000000000000000E90100088D1F00081A
:10004000F1010008F1010008F1010008F1010008C8
:10005000F1010008F1010008F1010008F1010008B8
:10006000F1010008F1010008F1010008F1010008A8
:10007000F1010008F1010008F1010008F101000898
:10008000F1010008F101000800000000F101000882
:10009000F1010008F1010008F1010008F101000878
:1000A000F1010008F1010008F1010008F101000868
:1000B0002922000800000000F101000800000000F3
:1000C0005FF808F130B583B0314B324A1360324AE1
:1000D0001360324B3249002201E01A6004338B4234
:1000E000FBD32C4B1B68002B03D12B4B1B68002B25
:1000F00000D0FEE7264B2B4A13602B4A13602B4B94
:100100002B4A2C4903E010681860043304328B42F8
:10011000F9D3244B1A68284B9A4204D1224B1A680F
:100120001B689A4200D0FEE700F07AFE01A86946FB
:1001300000F0FCFD214B224DED1AAD10002404E02F
:10014000A3001E4A9B5898470134A542F8DC1D4B7A
:100150001D4DED1AAD10002404E0A30019481B58F2
:1001600098470134A542F8DC0198009901F024FF7A
:10017000051C164B164CE41AA41004E0013CA30025
:10018000124A9B589847002CF8DC281C00F0A0FD70
:10019000BABADECA88000020700100208800002062
:1001A00074010020000000208400002000000020D6
:1001B000642E00088800002078563412F4010008EC
:1001C000F4010008F4010008F8010008F801000833
:1001D000F801000808B5FFF775FFC046FEE7C04606
:1001E000FEE7C046FEE7C046FEE7C046FEE7C04663
:0401F000FEE7C04620
:0401F400ED200008F2
:1001F800F8B5051C0E1C9023DB05984212D03D4B28
:1002080098420FD03C4B98420CD03C4B984209D0B6
:100218003B4B984206D03B4B984203D03A48B42116
:1002280000F088FD3368002B03D13748B52100F072
:1002380081FD3379032B03D93348B62100F07AFDC9
:10024800F379022B03D93048B72100F073FD00245D
:1002580001274BE03B1CA34032681A409A4244D124
:100268003379013B012B28D87379012B05D9032B4E
:1002780003D02548C72100F05DFDAA68630003216B
:1002880099408A43AA60AA68717999400B1C134364
:10029800AB60B379012B03D91B48CE2100F04AFD8E
:1002A800AA8823041B0C391C99408A43AA80AA886F
:1002B800B17999408BB21343AB802968630003225C
:1002C800101C98408143296028683179994001437E
:1002D8002960E9682004C00B82409143E960EA681C
:1002E800F17999400B1C1343EB6001340F2CB1D901
:1002F800F8BDC0460004004800080048000C00484B
:100308000010004800140048202C000838B5041CD0
:100318000D1C9023DB05984213D00E4B984210D049
:100328000D4B98420DD00D4B98420AD00C4B984279
:1003380007D00C4B984204D00B48C821490000F064
:10034800F9FC002D04D108489221FF3100F0F2FC9D
:10035800A56138BD0004004800080048000C0048AA
:100368000010004800140048202C000838B5041C70
:100378000D1C9023DB05984213D00E4B984210D0E9
:100388000D4B98420DD00D4B98420AD00C4B984219
:1003980007D00C4B984204D00B48A621FF3100F03F
:1003A800C9FC002D04D10848D321490000F0C2FC43
:1003B800258538BD0004004800080048000C0048A6
:1003C8000010004800140048202C000870B5041CD8
:1003D8000D1C161C9023DB05984212D0174B98422F
:1003E8000FD0174B98420CD0164B984209D0164B99
:1003F800984206D0154B984203D01548154900F08D
:1004080099FC0F2D03D91248134900F093FC072ECD
:1004180003D90F48114900F08DFC07232B409B009E
:100428009E40E908083189000A590F209840824304
:100438000A510B591E430E5170BDC04600040048B6
:1004480000080048000C004800100048001400484C
:10045800202C00080D0200000E0200000F02000010
:1004680070B5041C8378012B03D91A48522100F077
:1004780061FC6378032B03D91648532100F05AFC1A
:10048800A378002B1BD02578AA08134BC032920002
:10049800D65803210D40E900FF20051C8D40AE43CE
:1004A800351C6678B60130408840011C2943D1507C
:1004B80022781F210A4001219140196008E0237821
:1004C8001F21194001238B40191C8023024AD15057
:1004D80070BDC046542C000800E100E070B5041C53
:1004E8005E4B5B680C221340042B0CD002D8002B07
:1004F80005D028E0082B0AD00C2B20D023E0584B3D
:100508000360002022E0564B036000201EE0534B9E
:100518005D68AD025A682D0F0235C0235B021A428E
:1005280002D15048684308E04C4BDB6A0F21194060
:1005380001314B4801F0AAFE6843206006E04A4BAF
:100548000360002002E0464B23600020434B5A68BA
:100558001206120F454DA95CC9B22668321CCA4062
:10056800111C62605A685205520FAA5CD2B2D1407F
:100578000A1CA1601B6BD90502D43D4BE36008E05F
:10058800364B5B68590402D45308E36001E09308D2
:10059800E360324B1B6B590602D4364B236102E0F1
:1005A80080231B0223612D4B1B6BD90602D42C4BD5
:1005B800636100E06661294B1B6B990701D1A26159
:1005C80019E0264B1B6B03210B40012B01D1A661BF
:1005D80011E0224B1B6B03210B40022B03D180231C
:1005E8001B02A36107E01D4B1B6B03210B40032B70
:1005F80001D11B4BA361194B196BC0239B021942F4
:1006080001D1E26120E0154B1B6BC02292021A4017
:1006180080235B029A4201D1E66115E00F4B1B6B08
:10062800C02292021A4080239B029A4203D180235F
:100638001B02E36108E0094B1A6BC0239B021A40B6
:100648009A4201D1064BE361044B1B6B1A0602D494
:10065800054B236200E0206270BDC04600100240D6
:1006680000127A0000093D00006CDC020400002042
:10067800809FD5001280000038B5041C0D1C0D4B5E
:10068800184201D1002803D10B480C4900F052FB55
:10069800012D03D908480A4900F04CFB002D04D06D
:1006A800084B5A6914435C6103E0064B5A69A2433C
:1006B8005A6138BDAAFF81FE882C00083605000063
:1006C800370500000010024038B5041C0D1C0E4B05
:1006D800184201D1002803D10C480D4900F02AFB2B
:1006E800012D04D90948B121C90000F023FB002DD0
:1006F80004D0084BDA691443DC6103E0054BDA697E
:10070800A243DA6138BDC046CCB61185882C0008F2
:100718008705000000100240F0B5474680B48AB053
:10072800041C0D1C5C4B98420CD05C4B984209D0C1
:100738005B4B984206D05B4B984203D05A48DC2169
:1007480000F0F8FA2A68013A584B9A4203D95648F9
:10075800DD2100F0EFFA6B68002B0AD080225201ED
:10076800934206D0524A934203D04F48DE2100F00C
:10077800E1FAAB68002B0BD080229201934207D09C
:10078800C0229201934203D04748DF2100F0D2FAF9
:10079800EB68002B0BD08022D200934207D0C022F6
:1007A800D200934203D04048E02100F0C3FA2B69FD
:1007B8000C22191C914301D1002B03D13A48E121A5
:1007C80000F0B8FA6B69002B0FD0802252009342D8
:1007D8000BD080229200934207D0C022920093420D
:1007E80003D03148E22100F0A5FA2368012293439F
:1007F800236062682F4B1340AA6813436360226822
:100808002D4B1A406B68E9680B4329690B43134366
:100818002360A268294B13406A691343A36001A8A7
:10082800FFF75CFE1C4B9C4201D1079F05E01B4B68
:100838009C4201D1089F00E0039F236819040CD54E
:100848007F00B8462F684046391C01F01FFD061C82
:100858004046391C01F05EFD0AE02A689046381CC3
:10086800111C01F013FD061C381C414601F052FD15
:100878002A685208002391425B41F618236819043C
:1008880004D533075B0F0E4A16401E43B6B2A68145
:100898000AB004BC9046F0BD003801400044004056
:1008A80000480040004C0040B82C00087F8D5B00D9
:1008B80000100010FFCFFFFFF3E9FFFFFFFCFFFF71
:1008C800F0FF000038B5041C0D1C124B98420DD0E7
:1008D800114B98420AD0114B984207D0104B9842BE
:1008E80004D01048C821490000F024FA012D04D989
:1008F8000C489221FF3100F01DFA002D04D0226827
:1009080001231343236003E02368012293432360F8
:1009180038BDC0460038014000440040004800404F
:10092800004C0040B82C000838B5041C0D1C0D4BB9
:1009380098420CD00C4B984209D00C4B984206D0E8
:100948000B4B984203D00B480B4900F0F3F90B4BC3
:100958009D4203D907480A4900F0ECF9ED05ED0D71
:10096800258538BD0038014000440040004800405B
:10097800004C0040B82C000895030000FF0100005F
:100988009603000010B5041C094B98420CD0094B83
:10099800984209D0084B984206D0084B984203D099
:1009A8000748084900F0C6F9A08CC005C00D10BD65
:1009B800003801400044004000480040004C00401E
:1009C800B82C0008A603000070B5051C0C1C161CEA
:1009D8002C4B98420CD02C4B984209D02B4B984268
:1009E80006D02B4B984203D02A482B4900F0A2F995
:1009F80084235B009C4225D0284B9C4222D0284B64
:100A08009C421FD0274B9C421CD0274B9C4219D09C
:100A1800264B9C4216D0264B9C4213D0C0239B00E9
:100A28009C420FD0234B9C420CD0234B9C4209D0B4
:100A3800224B9C4206D0224B9C4203D015482149A8
:100A480000F078F9012E03D912481F4900F072F915
:100A58002B1CA2B2120AFF210C400121A1400C1C40
:100A6800022A01D12B1D03E0032A01D12B1C0833D4
:100A7800002E03D01A6814431C6002E01A68A243CF
:100A88001A6070BD00380140004400400048004032
:100A9800004C0040B82C00080507000007010700BB
:100AA800060106000501050004010400060208000D
:100AB8000A0309001A010B001B010C000E011100AA
:100AC80016031400060700000707000038B5051CC8
:100AD8000C1C314B98420CD0304B984209D0304B0B
:100AE800984206D02F4B984203D02F482F4900F048
:100AF80021F9012C49D0802C47D0402C45D0202CFE
:100B080043D0102C41D080235B009C423DD08023F1
:100B18009B009C4239D0082C37D0042C35D0022CAD
:100B280033D08023DB009C422FD080231B019C42C2
:100B38002BD080235B019C4227D08023DB019C4281
:100B480023D080231B029C421FD080235B029C423F
:100B58001BD080239B029C4217D08023DB029C423F
:100B680013D080231B039C420FD080235B039C423D
:100B78000BD080239B039C4207D08023DB039C423D
:100B880003D009480A4900F0D5F8E8690440201C58
:100B9800441EA04138BDC046003801400044004012
:100BA80000480040004C0040B82C000893070000A3
:100BB8009407000038B5051C0C1C2F4B98420CD02C
:100BC8002E4B984209D02E4B984206D02D4B984276
:100BD80003D02D482D4900F0ADF884235B009C42DA
:100BE8002AD02B4B9C4227D02A4B9C4224D02A4BFC
:100BF8009C4221D0294B9C421ED0294B9C421BD0A1
:100C0800284B9C4218D0284B9C4215D0274B9C421D
:100C180012D0274B9C420FD0264B9C420CD0264B1F
:100C28009C4209D0254B9C4206D0254B9C4203D0C0
:100C38001548244900F07EF8A3B21B0AFF2222407F
:100C4800012191400A1C012B02D129680A4006E0C3
:100C5800022B02D169680A4001E0A9680A40240C05
:100C68000123A3401C1CEB691C400020002A02D071
:100C7800201C441EA04138BD0038014000440040FB
:100C880000480040004C0040B82C0008E60700006F
:100C9800070107000601060005010500040104001C
:100CA800060208000A03090000030300000302000B
:100CB800000301001A010B001B010C000E011100BA
:100CC80016031400E7070000FEE7C04608B503480E
:100CD80000F054F80120FFF7F7FFC046EC2C00089D
:100CE80008B50D4B1B68002B02D10C4A0A4B1A6041
:100CF800094B1B680330032290431818084A904296
:100D080006D901F013FB0C2303600120404202E0E6
:100D1800014A1060181C08BD8C00002074010020D6
:100D2800001C002001230360014B0B607047C04684
:100D38001400002008B5031C0A1C0348191C00F005
:100D480005F8FFF7C3FFC046402D00080FB400B5F3
:100D580083B004AB04CB01930748802101F01EFC4B
:100D6800011E03DD044800F053F8011C081C03B001
:100D780008BC04B01847C0469400002010B5041CF5
:100D880001F0C4FB011C201C00F042F802480121BC
:100D980000F03EF810BDC0466C2D0008F0B55F4667
:100DA80056464D464446F0B485B0041C8A46435C1A
:100DB8000E1C002B1BD10425281C211CABBE041CB7
:100DC8001DE0351E102D00D95D46434604E022780B
:100DD8006946CA5401330134AB42F8D36F464246E0
:100DE800FA544846391CABBE071C761B05E0102395
:100DF8009B460021884604229146002EE1D15046A8
:100E080005B03CBC90469946A246AB46F0BDC046EC
:100E180008B5FFF7C3FF08BD08B500F05BF808BDCB
:100E280082B0002301930093274B19688022520255
:100E38000A431A60191C80229202A020C0010B6884
:100E480013400093019B01330193009B002B02D1B7
:100E5800019B8342F3D11C4B1B689A0302D50123E3
:100E6800009301E000230093009B012B2AD111225B
:100E7800164B1A60144B5A685A605A685A60596877
:100E8800134A0A405A605968882252030A435A6032
:100E98001968802252040A431A60191C802292049D
:100EA8000B681342FCD0084B5A6803218A435A60E6
:100EB800596802220A435A60191C0C224B681340D5
:100EC800082BFBD102B070470010024000200240FE
:100ED800FF7FC0FF08B5124B196801221143196042
:100EE800586810490140596018680F490140196055
:100EF80018680E490140196058680D490140596049
:100F0800D96A0F208143D962186B0A4901401963D5
:100F1800596B9143596300229A60FFF781FF08BD1E
:100F2800001002400CB8FF08FFFFF6FEFFFFFBFFB2
:100F3800FFFFC0FFACFEFFFF70B5041C0E1C0023B2
:100F4800037073238360081C01F0E0FA01306060CD
:100F580001F0F2F9051E02D10323237003E0311CCE
:100F680001F0CCFA2561201C70BDC0460023037037
:100F78006923836004234360016170470023037081
:100F88006923836004234360016170470023037071
:100F980066238360042343600161704710B582B003
:100FA8006B4600910192002202707422826008222E
:100FB8004260021C103212CB12C202B010BDC046F1
:100FC8000021017008214160642181600261436150
:100FD8007047C046F0B54F464646C0B483B0071CBC
:100FE800894690460023037062238360101C0430F6
:100FF8007860009201AD6C460334042304E0237842
:101008002B70331C0135013C5E1E002BF7DC019C64
:10101800009400280DDD01F08FF9051E02D103238D
:101028003B7008E010C04946424601F099F93D611D
:1010380001E000233B61381C03B00CBC9046994684
:10104800F0BDC04610B5041C4368002B0BDD836857
:10105800732B03D1006901F079F904E0622B02D106
:10106800006901F073F9201C10BDC046022303700B
:10107800816000234360704770B5431C012282568B
:101088000126212A01D1831C002670427041C0B27A
:1010980014E001241C572D2C0AD10C7852B265B2E9
:1010A800AA4203DC02229A5695420DDD033305E07D
:1010B80052B200240C57A24208D001331A785D2A94
:1010C80005D0002AE5D102E0301C00E0301C70BDDC
:1010D80070B50E1C013013E0013400E0041C2378C5
:1010E8007D2B05D0002B03D02F2B01D02C2BF3D137
:1010F800251A311C2A1C01F010FA002809D0601C9E
:1011080003787D2B07D0002B07D02F2BE6D10020AA
:1011180004E0281C02E0002000E0002070BDC0466A
:1011280008B5031C02785D2A12D050B25D2805DC90
:1011380001203F2A27D05B2A05D01EE07B2A0FD04A
:101148007D2A12D019E0181CFFF796FF1BE0013B1F
:1011580000229A565B2AFAD1181CFFF78DFF12E07D
:10116800181CFFF7B5FF0EE0013B00229A567B2AB8
:10117800FAD1181CFFF7ACFF05E050B20023CB569C
:10118800C01A4242504108BD70B5041C0D1C0B78B2
:101198002F2B01D0002B0ED123782F2B2ED00120FE
:1011A800002B2ED000202A2B2BD160782F2827D077
:1011B8004342584125E006782A2E0BD10130FFF72B
:1011C800E3FF031C0120002B1BD1691C201CFFF727
:1011D800DBFF16E0FFF7A4FF002812D05B2E03D038
:1011E8007B2E06D100E0013423785D2B01D07D2BC6
:1011F800F9D1601C691CFFF7C7FF02E0012000E07D
:10120800012070BDF0B557464E464546E0B48046CD
:101218000F1C0B7800200A1C002B01D178E001324A
:1012280013782F2B04D0002BF9D14446002008E076
:101238004446002005E05BB22A3B59424B41C018A6
:10124800013423782F2B01D0002BF4D1013C551EFB
:10125800012815D002282BD054E0201C291CFFF7A8
:101268005FFF002854D05D2E03D07D2E06D100E00C
:10127800013C23785B2B01D07B2BF9D1013C013D4C
:1012880026782A2EE9D1012042E0201C291CFFF7EC
:1012980047FF00283CD05D2E03D07D2E06D100E00C
:1012A800013C23785B2B01D07B2BF9D1013C013D1C
:1012B80026782A2EE9D10135A946013CA2461DE02F
:1012C800544601235B4299444E4612E0201C311CCF
:1012D800FFF726FF00280FD05D2D03D07D2D06D106
:1012E80000E0013C23785B2B01D07B2BF9D1013C3A
:1012F800013E25782A2DE9D1444508D0B945DFD8E3
:10130800002005E04046391CFFF73EFF00E00120C1
:101318001CBC90469946A246F0BDC046F0B557465B
:101328004E464546E0B480460F1C9246994601F069
:10133800DBF800280BD1404601F0E8F8524610606F
:10134800381C01F0E3F84B461860032064E00023E2
:10135800524613604A4613603D1C444645E02A2E17
:1013680014D1201C291CFFF74DFF002801D153E0A0
:10137800013423782F2B03D0002BF9D100E001355D
:101388002B782F2B31D0002BF9D12EE02A2B0ED120
:1013980000E0013426782F2E03D0002EF9D100E08A
:1013A80001352E782F2E20D0002EF9D11DE0201CDB
:1013B800291CFFF7B5FE00282DD05B2E08D100E0D0
:1013C80001340023E3565D2BFAD1013401350CE0DA
:1013D8007B2E08D100E001340023E3567D2BFAD19F
:1013E80001342D1801E0013401352B78002B02D08F
:1013F8002678002EB3D14246A31A52461360EF1B3B
:101408004B461F602878434258412378002B03D16C
:101418000223184300E000201CBC90469946A246CF
:10142800F0BDC04683688B4203DD43688900C85815
:1014380002E00423037300207047C04600B583B060
:101448000068801801AA6B46FFF768FF033843421B
:101458005841C0B203B000BD38B5041C151C1A1C95
:10146800FFF7ECFF0023002802D0201CA847012327
:10147800181C38BD70B5051C0E1C006800F066FF0E
:10148800301C01F043F8013000F056FF041E04D16F
:1014980003232B7300232B6003E0311C01F02EF88B
:1014A8002C6070BD70B5051C067B731E9E41F6B29C
:1014B800002408E0281C211CFFF7B4FF03785A1EFB
:1014C80093411E430134AB68A342F3DC301C70BD6A
:1014D80038B5041CFFF7A6FF051C201CFFF7E2FF28
:1014E8000023002800D12B7A58B238BDF0B54F46FA
:1014F8004646C0B485B0061C0C1CFFF7D3FF002875
:1015080000D0B3E03768381C01F000F8421C03250E
:101518008543201C391C00F0CFFC04E0201C00216E
:1015280000F0B2FC3D1C6F1E002DF7D1201C2C21B1
:1015380000F0AAFC08E0301C291CFFF7C9FFC1B263
:10154800201C00F0A1FC0135B268AA42F3DC032399
:10155800934306D1042304E0201C002100F094FCEE
:101568002B1C5D1E002BF7D1002703229146042374
:10157800984678E0301C391CFFF754FF051C836837
:10158800732B01D0622B12D1201C29696A6800F0E4
:1015980093FC6B685B424A46134004E0201C002120
:1015A80000F072FC2B1C5D1E002BF7D15AE0642B57
:1015B80011D1173002AA082304E0037813700B1C1A
:1015C80001320138591E002BF7DC201C02A9082221
:1015D80000F072FC46E0742B2ED1011C103102A8D9
:1015E800082200F0BDFE01A96A460B32434604E01A
:1015F80013780B70031C0131013A581E002BF7DCDD
:10160800019B0093201C6946424600F055FC01A945
:101618006A460F32434604E013780B70031C01310D
:10162800013A581E002BF7DC019A0092201C6946EB
:10163800424600F041FC15E0542B13D0462B11D044
:10164800011C133102AA434604E00B781370031CF3
:1016580001320139581E002BF7DC6A68201C02A9E8
:1016680000F02AFC0137B368BB4283DC05B00CBC30
:1016780090469946F0BDC04670B5041CCEB21820FD
:1016880000F0F0FD051C71B2FFF7F0FC2B78032B7E
:1016980001D1237311E0A16801318900606800F06D
:1016A80005FF002802D10323237306E06060A268C7
:1016B8009300C550A3680133A36070BD38B5041CFE
:1016C8000D1C8269002A08DD43695A1C42610269BF
:1016D800D1548369013B836110E04169113100698C
:1016E80000F0E4FE2061002806D063695A1C62619C
:1016F800C5541023A36101E00323237338BDC046FA
:1017080010B5041C0069102100F0D0FE20610028EB
:1017180002D01023A36103E0032323730023236172
:101728000023636110BDC04638B5041C0025056060
:10173800856005734560056145618561FFF7E0FFD8
:10174800657338BD38B5041C0D1CFFF7EDFF201C70
:10175800291CFFF78FFE201C38BDC04610B5041C9D
:10176800FFF7E2FF02232373201C10BD70B5061C8F
:101778000023037300240BE0301C211CFFF752FEEA
:10178800051E04D0FFF75EFC281C00F065FD01343F
:10179800B368A342F0DC706800F0D8FD00237360E2
:1017A800B3607373301CFFF7ABFF70BD10B5041C3A
:1017B8002169FFF75FFE00232373201CFFF7A0FFBA
:1017C80010BDC046F0B5474680B48AB0071C0C1C53
:1017D80000265FE2381C311CFFF724FE0378022B39
:1017E80000D056E28368623B122B00D956E29B0078
:1017F800CB4AD3589F467A69042A00D04EE202A801
:10180800396900F0ADFD04A96A460B32042304E0EF
:1018180013780B70031C0131013A581E002BF7DCBA
:10182800049DBB689E421ADA381C311CFFF7FAFD8A
:10183800041E04D0FFF706FC201C00F00DFD182044
:1018480000F010FD041C291CFFF790FB2378032BE4
:1018580001D13B7326E0B6007B689C5122E09E4292
:101868001ED1182000F0FEFC041C291CFFF77EFB8B
:101878002378032B01D13B7314E0B9680131890047
:10188800786800F013FE002802D103233B7309E0B7
:101898007860BA689300C450BB680133BB6001E04C
:1018A80004233B73381CFFF72BFFF7E17B69042BFC
:1018B80000D0F3E102A83969042200F051FD04A91F
:1018C8006A460B32042304E013780B70031C0131C1
:1018D800013A581E002BF7DC049DBB689E421ADAB9
:1018E800381C311CFFF79EFD041E04D0FFF7AAFB2D
:1018F800201C00F0B1FC182000F0B4FC041C291CCA
:10190800FFF744FB2378032B01D13B7326E0B60095
:101918007A68945122E09E421ED1182000F0A2FC61
:10192800041C291CFFF732FB2378032B01D13B73DE
:1019380014E0B96801318900786800F0B7FD002823
:1019480002D103233B7309E07860BA689300C4505E
:10195800BB680133BB6001E004233B73381CFFF70D
:10196800CFFE9BE17B69082B00D097E102A839697B
:10197800082200F0F5FC04A96A460F32082304E0A7
:1019880013780B70031C0131013A581E002BF7DC49
:10199800049C059DBB689E421EDA381C311CFFF76B
:1019A80041FD8046002804D0FFF74CFB404600F07C
:1019B80053FC182000F056FC8046221C2B1CFFF715
:1019C800FFFA42461378032B01D13B7328E0B60097
:1019D80042467B689A5123E09E421FD1182000F0AE
:1019E80041FC061C221C2B1CFFF7EAFA3378032B58
:1019F80001D13B7314E0B96801318900786800F0BF
:101A080055FD002802D103233B7309E07860BA68CA
:101A18009300C650BB680133BB6001E004233B73ED
:101A2800381CFFF76DFE39E17B69082B00D035E1E2
:101A380068463969082200F093FC04A96A46033213
:101A4800042304E013780B70031C0131013A581E7B
:101A5800002BF7DC049A009204A96A460732042393
:101A680004E013780B70031C0131013A581E002B57
:101A7800F7DC049B019302A86946082200F070FC79
:101A8800BB689E4220DA381C311CFFF7CBFC041ED1
:101A980004D0FFF7D7FA201C00F0DEFB06A802A945
:101AA800082200F05DFC182000F0DCFB041C0699FD
:101AB800079AFFF773FA2378032B01D13B7333E0BE
:101AC800B6007A6894512FE09E422BD104A802A94F
:101AD800082200F045FC08A804A9082200F040FCF0
:101AE800182000F0BFFB041C0899099AFFF756FA62
:101AF8002378032B01D13B7316E0B96801318900C3
:101B0800786800F0D3FC002802D103233B730BE074
:101B18007860BA689300C450BB680133BB6003E0C7
:101B28009C2D000804233B73381CFFF7E9FDB5E042
:101B3800002C00D0B2E03D69BB689E421ADA381C1E
:101B4800311CFFF76FFC041E04D0FFF77BFA201C42
:101B580000F082FB182000F085FB041C291CFFF70D
:101B6800EBF92378032B01D13B7326E0B6007B68A1
:101B78009C5122E09E421ED1182000F073FB041CE9
:101B8800291CFFF7D9F92378032B01D13B7314E003
:101B9800B96801318900786800F088FC002802D112
:101BA80003233B7309E07860BA689300C450BB68AC
:101BB8000133BB6001E004233B73381CFFF7A0FD31
:101BC80006237B736AE07D69042D67DD3B699846CF
:101BD80002A8191C042200F0C3FB04A86A460B32B1
:101BE800042304E013780370231C0130013A5C1EBF
:101BF800002BF7DC049C231D9D424FD10422904406
:101C0800BB689E421BDA381C311CFFF70BFC051E13
:101C180004D0FFF717FA281C00F01EFB182000F06C
:101C280021FB051C4146221CFFF7D4F92B78032B16
:101C380001D13B7327E0B6007B689D5123E09E42AB
:101C48001FD1182000F00EFB051C4146221CFFF78F
:101C5800C1F92B78032B01D13B7314E0B96801312A
:101C68008900786800F022FC002802D103233B7326
:101C780009E07860BA689300C550BB680133BB605F
:101C880001E004233B73381CFFF73AFD06237B73FE
:101C980004E00136BB68B34200DD9BE50AB004BC32
:101CA8009046F0BD38B5041C0D1CFFF707FD637B9B
:101CB800062B4FD89B00284AD3589F462F2D49D131
:101CC8000123637346E0002D44D1201CFFF76EFD0D
:101CD800022363733EE02C2D3CD103236373201C45
:101CE800FFF70EFD36E0002D04D0201C291CFFF75D
:101CF800C3FC01E004236373A2680323934300D168
:101D080004239B186169994224D1201CFFF7F8FC31
:101D1800052363731EE0201C291CFFF753FD19E0FF
:101D2800A568013D14E0201C291CFFF77BFB037804
:101D3800002B0CD143685B420322134062699A422C
:101D480008D1201CFFF7DCFC0523637302E0013D8A
:101D5800002DE8DA38BDC046E82D000808B5FFF7C1
:101D6800A1FF08BD002303707047C04638B5041CA6
:101D7800032500F03DFAC3B22278002A08D1DB2BF4
:101D880001D12570F5E7C02B10D0FF23184012E0D1
:101D9800032A0ED100222270C020DC2B0BD0DD3BA1
:101DA8005A1E93415842DB23184304E00120404265
:101DB80001E00120404238BD10B5041C00F006FACD
:101DC800031CC1B22278032A05D1C020DC2904D023
:101DD800DB20DD2901D0FF20184010BD10B5041C00
:101DE8000378022B03D100230370012011E00020A7
:101DF800012B0ED100F0D8F9002807D0201CFFF7DE
:101E0800DBFFC0B2C02801D100F0F2F90023237033
:101E1800012010BD70B5041C0125032600F0C4F98B
:101E280000282BD02378002B0FD1201CFFF7C4FFEC
:101E3800C0B2DB2803D1267000F0DAF9EEE7C0283B
:101E48001ED1257000F0D4F9E8E7032B1AD0012B36
:101E58000ED1201CFFF7B0FFC02805D10223237044
:101E680000F0C6F900200EE00023237000200AE0ED
:101E78000020022B07D10023237004E0002002E099
:101E8800012000E0012070BD08B5C02906D1DB2083
:101E980000F07AF9DC2000F077F90BE0DB2906D1B5
:101EA800DB2000F071F9DD2000F06EF902E0081C7B
:101EB80000F06AF908BDC04670B5061C06E04D1C66
:101EC8000978301CFFF7E0FF221C291C541E002A49
:101ED800F5D170BD08B5C02000F056F908BDC04660
:101EE80008B5C02000F050F908BDC04630B583B031
:101EF800802000030121FEF7BFFB8024A40000948A
:101F0800012369460B7100238B7103224A71CB713F
:101F1800044D281CFEF76CF9281C211CFEF726FA34
:101F280003B030BD0008004808B50C4B1868FA210A
:101F3800890000F0ABF90138094B98420DD8094BDC
:101F48005860094A106A0002000AC02109060143C4
:101F5800116200229A6007221A6008BD1C00002046
:101F6800FFFFFF0010E000E000ED00E0044B1B68FD
:101F7800002B03D0024B1A68013A1A607047C0461A
:101F88002C01002008B5FFF7F1FF08BD7047C046D7
:101F98007047C04608B5012805D1034B994202D1C4
:101FA8000248FFF7DFFE08BDFFFF00001401002014
:101FB800F0B54F464646C0B48FB068464249FFF771
:101FC800C1FB182000F04EF9041C6321FEF7D6FF70
:101FD8002378032B02D169460B7312E0019802990A
:101FE8000131890000F062FA002803D103236A4610
:101FF800137306E0019002998B00C450029B0133D1
:10200800029307A8FFF7AAFB00F074F8FFF76EFF2A
:10201800FFF78AFF00242D4F03229046D3179946D5
:1020280013E02A48FFF7F6FE00280ADC0DE0301C12
:10203800FFF79CFEC1B207A8FFF790FE0134281CE9
:1020480000E0224E451E0028F1D1381CFFF7C6FEDD
:102058000123002804D0E30F49464246A2424B41DF
:10206800002BDED107A8FFF71DFA002826D1184E4D
:102078008025AD00301C291CFEF748F9134C201CA4
:10208800FFF728FF07A8211CFFF730FA201CFFF7ED
:1020980027FF301C291CFEF769F907A80D490E4ACD
:1020A8000023FFF7D9F907A80C490D4A0023FFF7C9
:1020B800D3F907A8FFF75AFB0024C6E707A8FFF7DC
:1020C80055FB0024C1E7C046042E00081401002077
:1020D80000080048102E0008991F0008202E00084C
:1020E800951F000808B501200149FFF753FF08BDF7
:1020F800FFFF0000F0B58BB08024A402201C012152
:10210800FEF7BAFA201C0121FEF7DEFA9025ED054C
:10211800281C02210122FEF759F9281C032101225B
:10212800FEF754F902A90C27029703234B710223E7
:102138000B7100248C710126CE71281CFEF758F80B
:10214800E1235B0204930594069407940994089785
:102158000B4D281C04A9FEF7DFFA281C09490122A7
:10216800FEF732FC01A81C22027044708670FEF74C
:1021780077F9281C0121FEF7A5FB0BB0F0BDC0467E
:10218800004400400501050038B5051C054C201C1D
:102198008021FEF79BFC0028F9D00248291CFEF795
:1021A800C3FB38BD00440040064B18784030064B4E
:1021B8001B78C01AC3179B0EC0183F221040C01AC4
:1021C8007047C0461901002018010020054B1A78F5
:1021D800054B1B789A4202D0044AD05C01E00120EA
:1021E80040427047190100201801002030010020EA
:1021F800084B1A78084B1B789A4207D0074AD05CDC
:1022080001333F221340044A137001E00120404289
:102218007047C04619010020180100203001002035
:1022280038B509480949FEF7C5FC00280BD0084C09
:1022380025780548FEF7A6FB064B58552378013349
:102248003F221340237038BD0044004005010500BB
:10225800190100203001002008B5002801D000F045
:1022680075F808BD10B5041E02D1012400E0984796
:10227800201C00F061F8002805D1034B1B68002BD7
:10228800F5D1FEF723FD10BD1C010020002934D034
:102298000123002210B488422CD301242407A14230
:1022A80004D2814202D209011B01F8E7E400A142ED
:1022B80004D2814202D249005B00F8E7884201D388
:1022C800401A1A434C08A04202D3001B5C08224360
:1022D8008C08A04202D3001B9C082243CC08A042D1
:1022E80002D3001BDC082243002803D01B0901D0BD
:1022F8000909E3E7101C10BC7047002801D0002032
:10230800C04307B4024802A14018029003BDC0466A
:10231800190000000029F0D003B5FFF7B9FF0EBC83
:102328004243891A1847C0467047C046014B18688F
:102338007047C0468000002008B5034B011C186890
:1023480000F060F808BDC0468000002008B5034BC7
:10235800011C186800F00EF808BDC0468000002077
:1023680010B50023934203D0CC5CC4540133F9E781
:1023780010BD000030B5002940D004390B68002B8F
:1023880000DAC9181E4A1368141C002B02D14B60CE
:10239800116033E099420FD208680A189A4205D1B1
:1023A80013685268C01808604A6000E04B602160FA
:1023B80024E08A4203D8131C5A68002AF9D11D6800
:1023C8005C198C420BD10968691858181960904239
:1023D80014D114685268091919605A600EE08C42C9
:1023E80002D90C23036009E008680C18944203D151
:1023F80014685268001908604A60596030BDC046C8
:102408002401002070B50323CD1C9D430835061C0C
:102418000C2D01D20C2501E0002D3FDB8D423DD370
:10242800204B1C681A1C211C002913D00868431B68
:102438000DD40B2B02D90B60CC181EE08C4202D1B4
:10244800636813601AE0486860600C1C16E00C1C96
:102458004968E9E7144C2068002803D1301C00F0D3
:1024680031F82060301C291C00F02CF8431C15D0D2
:10247800C41C03239C4384420AD12560201C0B30D2
:102488000722231D9043C31A0BD05A42E25008E09A
:10249800211A301C00F016F80130EED10C233360FD
:1024A800002070BD240100202001002008B50A1C6E
:1024B8000349031C0868191C00F080F808BDC046D1
:1024C8008000002038B5074C0023051C081C236039
:1024D800FEF706FC431C03D12368002B00D02B60B9
:1024E80038BDC0462801002002780B780130013140
:1024F800002A01D09A42F7D0D01A7047031C0A78F4
:1025080001311A700133002AF9D170470023C25CE7
:102518000133002AFBD1581E7047031C002010B558
:1025280082420FD01C780878A04201D1012A03D139
:1025380018780B78C01A05E0013A0028F8D0013362
:102548000131EFE710BD30B5051C9BB0141E04DA4D
:102558008B230360012040421DE0822292006846DE
:1025680000910491002182818C4200D0611E0122D9
:102578005242029105916946CA81281C1A1C1E9B69
:1025880000F0A2F8421C01DA8B232B60002C02D049
:10259800009900230B701BB030BD000073B5141CEC
:1025A800054A061C0D1C1068311C00932A1C231CAC
:1025B800FFF7C9FF76BDC04680000020F8B5061CAD
:1025C8000C1C151C002904D1111CFFF71BFF041C4F
:1025D80018E0002A03D1FFF7CDFE2C1C12E000F012
:1025E80011FBA8420ED2301C291CFFF70BFF071E57
:1025F80007D0211C2A1CFFF7B3FE301C211CFFF753
:10260800B9FE3C1C201CF8BDF0B58D6885B0071CD0
:102618000C1C03920193AB4245D390228B89D200C4
:1026280013423DD062690326564309692068F20FB8
:10263800401A96190290021C01980132121876105D
:10264800964200D2161C381C5A050FD5311CFFF7CC
:10265800D9FE051E13D0029A2169FFF781FEA289CF
:10266800184B134080221343A38111E0321CFFF75B
:10267800A5FF051E0CD1381C2169FFF77BFE0C2332
:102688003B60A389402213430120A381404217E005
:10269800029B2561ED1825606661019DF61AA6600A
:1026A8000198A84200D2019D2A1C2068039900F0D5
:1026B80090FAA2680020531BA36023685D19256067
:1026C80005B0F0BD7FFBFFFFF0B59FB00390059309
:1026D8008B890E1C171C19060FD53269002A0CD1DC
:1026E8004021FFF78FFE30603061002803D1039945
:1026F8000C230B60C9E04023736106AD00236B61B6
:1027080020236B763023AB763C1C2378002B03D137
:10271800E21B029211D003E0252BF9D00134F4E733
:102728000398311C3A1C029BFFF76EFF013000D161
:10273800A6E06969029A8B186B612378002B00D197
:102748009EE0012252426A606A4600235B320134ED
:102758002B60EB60AB601370AB654E4F2178381C73
:10276800052200F02BFA002807D0C71B2B68012090
:10277800B840184328600134EFE72B68D90603D521
:102788006A4620215B3211701A0703D56A462B214D
:102798005B32117022782A2A01D0099B0EE0059A33
:1027A800111D12680591002A01DB099204E05242CA
:1027B800EA60022213432B60013409E02278303AA0
:1027C800092A04D80A214B4301349B18F6E70993D8
:1027D80023782E2B18D163782A2B09D1059B023434
:1027E8001A1D1B680592002B0DDA01235B420AE0D3
:1027F800013400232278303A092A04D80A214B43AD
:1028080001349B18F6E70793234F2178381C0322DD
:1028180000F0D4F9002806D0C71B2B684020B84028
:1028280018432860013421781C480622671C297641
:1028380000F0C4F9002812D0194B002B06D1059BD3
:102848000722073393430833059314E005AB00933D
:102858000398291C321C134B00E000BF07E005ABAE
:1028680000930398291C321C0E4B00F091F8049039
:102878000499013104D06A69049953186B6143E7DC
:10288800B3895A0601D40B9801E0012040421FB0D9
:10289800F0BDC0462E2E0008342E0008382E000841
:1028A8000000000011260008F7B5151C01930A69FD
:1028B8008B68061C0C1C934200DA131C221C2B602C
:1028C80043321278002A01D001332B602068800639
:1028D80002D52B6802332B60216806270F401FD0D2
:1028E800231C43331B785A1E9341226892061FD536
:1028F800E11840313020C870211C5A1C4531097834
:10290800A21840320233D17012E0221C301C019907
:1029180019320123089FB847013011D0009F0137B1
:102928000097E0682968009F431A9F42EDDBD7E7CC
:10293800221C301C01994332089FB847013002D14C
:102948000120404223E0206806212B68E26801400C
:102958000025042903D1D51AEB43DB171D40A268D3
:1029680023699A4201DDD31AED1800270097009FCA
:10297800AF420BDA221C301C01991A320123089F3E
:10298800B8470130DCD0009F0137EFE70020FEBDDB
:10299800F0B50D1C8BB0433506920590079304954E
:1029A8000B7E0C1C109A6E2B00D1A7E011D8632B5C
:1029B80022D009D8002B00D1B0E0582B00D0C0E0BD
:1029C80045310B707B4D4EE0642B1CD0692B1AD01F
:1029D800B7E0732B00D1A5E009D86F2B29D0702B55
:1029E80000D0AEE00E68202333430B6036E0752B31
:1029F8001FD0782B32D0A4E013680D1C191D423566
:102A080011601B689FE0216813680E0603D5191D25
:102A180011601E6805E04806F9D5191D11600021EE
:102A28005E5E644B002E3BDA049D2D2276422A70AE
:102A380036E0216813680E0603D5191D11601E685B
:102A480004E04806F9D5191D1E881160594B227EED
:102A5800039308276F2A1ED00A271CE0231C78211D
:102A68004533554D197011682368081D039510608A
:102A78001E0601D50E6802E05806FBD50E88D90758
:102A880002D52022134323601027002E03D1226889
:102A980020239A432260231C002243331A7001E04A
:102AA80003930A276368A360002B03DB25680422CD
:102AB80095432560002E02D1049D002B0ED0049D65
:102AC800301C391CFFF726FC0398013D435C301C81
:102AD8002B70391CFFF7DAFB061EF1D1082F09D13C
:102AE8002168C90706D5626823699A4202DC013D5C
:102AF80030232B70049E731B23612AE00868136837
:102B08004969050604D5181D10601B68196005E0A1
:102B18004606F8D5181D10601B681980002323612C
:102B2800049D16E01368191D11601D68281CFFF725
:102B3800EDFC63682061984200D9236120696060D8
:102B480004E0251C42352B7001232361049E0023D9
:102B58003370079E05980096211C09AA069BFFF76B
:102B6800A3FE013002D10120404221E02A1C059831
:102B780006992369079DA8470130F4D02668B6074F
:102B880005D4099BE068984212DA181C10E0002569
:102B9800E0680999431A9D42F3DA221C05980699C0
:102BA80019320123079EB0470130DCD00135EFE729
:102BB8000BB0F0BD3F2E0008502E0008C9B2821895
:102BC800904204D003788B4202D00130F8E700200D
:102BD800704770B5814201D300230CE08C18A042E5
:102BE800FAD28518131C013B0BD351426618F65CC8
:102BF8006918CE54F7E7934203D0CC5CC454013330
:102C0800F9E770BD04390B68181F002B02DAC858A1
:102C18001B18181F704700002E2E2F7379737465C8
:102C28006D2F7372632F73746D333266302D737426
:102C3800647065726970682F73746D3332663078AA
:102C4800785F6770696F2E63000000002E2E2F7367
:102C5800797374656D2F7372632F73746D33326675
:102C6800302D7374647065726970682F73746D3376
:102C780032663078785F6D6973632E6300000000F8
:102C88002E2E2F73797374656D2F7372632F73747F
:102C98006D333266302D7374647065726970682F95
:102CA80073746D3332663078785F7263632E6300B5
:102CB8002E2E2F73797374656D2F7372632F73744F
:102CC8006D333266302D7374647065726970682F65
:102CD80073746D3332663078785F75736172742EF1
:102CE8006300000061626F727428292C206578697E
:102CF80074696E672E2E2E002C2066756E637469BB
:102D08006F6E3A2000000000617373657274696F1A
:102D18006E2022257322206661696C65643A2066FC
:102D2800696C6520222573222C206C696E6520252C
:102D380064257325730A00006173736572745F708C
:102D48006172616D2829206661696C65643A206644
:102D5800696C6520222573222C206C696E652025FC
:102D6800640A00000A0000006D61696E28617267DC
:102D7800633D25642C20617267763D5B000000008E
:102D88002C20000022257322000000005D293B0A48
:102D980000000000CE1B0008A41C00086C190008E5
:102DA800A41C0008B4180008A41C0008A41C0008EF
:102DB800FE170008A41C0008A41C0008A41C000896
:102DC800A41C0008A41C0008A41C0008A41C0008DB
:102DD800A41C0008A41C0008381B0008301A0008AE
:102DE800C41C0008CE1C0008DE1C0008EE1C0008ED
:102DF800001D00081E1D0008281D00082F746869A2
:102E08006E672F74657374002F7379732F72656EF4
:102E1800756D6265720000002F7379732F72657388
:102E2800657400004300232D302B2000686C4C0093
:102E380065666745464700303132333435363738B2
:102E48003941424344454600303132333435363710
:092E5800383961626364656600AB
:102E64007856341200000000010203040102030436
:102E7400060708099000002000000000006CDC0236
:102E8400000000000000000000000000000000003E
:102E9400000000000000000000000000000000002E
:102EA4002C2E0008000000000000000000000000BC
:102EB400000000000000000000000000000000000E
:102EC40000000000000000000000000000000000FE
:102ED40000000000000000000000000000000000EE
:082EE400200000203254769812
:04000005080000C52A
:00000001FF
